{
  "contractName": "AuctionRepository",
  "abi": [
    {
      "anonymous": false,
      "inputs": [
        {
          "indexed": false,
          "internalType": "address",
          "name": "_owner",
          "type": "address"
        },
        {
          "indexed": false,
          "internalType": "uint256",
          "name": "_auctionId",
          "type": "uint256"
        }
      ],
      "name": "AuctionCanceled",
      "type": "event"
    },
    {
      "anonymous": false,
      "inputs": [
        {
          "indexed": false,
          "internalType": "address",
          "name": "_owner",
          "type": "address"
        },
        {
          "indexed": false,
          "internalType": "uint256",
          "name": "_auctionId",
          "type": "uint256"
        }
      ],
      "name": "AuctionCreated",
      "type": "event"
    },
    {
      "anonymous": false,
      "inputs": [
        {
          "indexed": false,
          "internalType": "address",
          "name": "_owner",
          "type": "address"
        },
        {
          "indexed": false,
          "internalType": "uint256",
          "name": "_auctionId",
          "type": "uint256"
        }
      ],
      "name": "AuctionFinalized",
      "type": "event"
    },
    {
      "anonymous": false,
      "inputs": [
        {
          "indexed": false,
          "internalType": "address",
          "name": "_from",
          "type": "address"
        },
        {
          "indexed": false,
          "internalType": "uint256",
          "name": "_auctionId",
          "type": "uint256"
        }
      ],
      "name": "BidSuccess",
      "type": "event"
    },
    {
      "payable": false,
      "stateMutability": "nonpayable",
      "type": "fallback"
    },
    {
      "constant": true,
      "inputs": [
        {
          "internalType": "uint256",
          "name": "",
          "type": "uint256"
        },
        {
          "internalType": "uint256",
          "name": "",
          "type": "uint256"
        }
      ],
      "name": "auctionBids",
      "outputs": [
        {
          "internalType": "address payable",
          "name": "from",
          "type": "address"
        },
        {
          "internalType": "uint256",
          "name": "amount",
          "type": "uint256"
        }
      ],
      "payable": false,
      "stateMutability": "view",
      "type": "function"
    },
    {
      "constant": true,
      "inputs": [
        {
          "internalType": "uint256",
          "name": "",
          "type": "uint256"
        }
      ],
      "name": "auctions",
      "outputs": [
        {
          "internalType": "string",
          "name": "name",
          "type": "string"
        },
        {
          "internalType": "uint256",
          "name": "blockDeadline",
          "type": "uint256"
        },
        {
          "internalType": "uint256",
          "name": "startPrice",
          "type": "uint256"
        },
        {
          "internalType": "string",
          "name": "metadata",
          "type": "string"
        },
        {
          "internalType": "uint256",
          "name": "tokenId",
          "type": "uint256"
        },
        {
          "internalType": "address",
          "name": "tokenRepositoryAddress",
          "type": "address"
        },
        {
          "internalType": "address payable",
          "name": "owner",
          "type": "address"
        },
        {
          "internalType": "bool",
          "name": "active",
          "type": "bool"
        },
        {
          "internalType": "bool",
          "name": "finalized",
          "type": "bool"
        }
      ],
      "payable": false,
      "stateMutability": "view",
      "type": "function"
    },
    {
      "constant": true,
      "inputs": [
        {
          "internalType": "address",
          "name": "",
          "type": "address"
        },
        {
          "internalType": "uint256",
          "name": "",
          "type": "uint256"
        }
      ],
      "name": "ownedAuctions",
      "outputs": [
        {
          "internalType": "uint256",
          "name": "",
          "type": "uint256"
        }
      ],
      "payable": false,
      "stateMutability": "view",
      "type": "function"
    },
    {
      "constant": true,
      "inputs": [
        {
          "internalType": "uint256",
          "name": "_auctionId",
          "type": "uint256"
        }
      ],
      "name": "getBidsAmount",
      "outputs": [
        {
          "internalType": "uint256",
          "name": "",
          "type": "uint256"
        }
      ],
      "payable": false,
      "stateMutability": "view",
      "type": "function"
    },
    {
      "constant": true,
      "inputs": [
        {
          "internalType": "address",
          "name": "_owner",
          "type": "address"
        }
      ],
      "name": "getOwnedAuctions",
      "outputs": [
        {
          "internalType": "uint256[]",
          "name": "",
          "type": "uint256[]"
        }
      ],
      "payable": false,
      "stateMutability": "view",
      "type": "function"
    },
    {
      "constant": true,
      "inputs": [
        {
          "internalType": "uint256",
          "name": "_auctionId",
          "type": "uint256"
        }
      ],
      "name": "getCurrentBids",
      "outputs": [
        {
          "internalType": "uint256",
          "name": "",
          "type": "uint256"
        },
        {
          "internalType": "address",
          "name": "",
          "type": "address"
        }
      ],
      "payable": false,
      "stateMutability": "view",
      "type": "function"
    },
    {
      "constant": true,
      "inputs": [
        {
          "internalType": "address",
          "name": "_owner",
          "type": "address"
        }
      ],
      "name": "getAuctionsAmount",
      "outputs": [
        {
          "internalType": "uint256",
          "name": "",
          "type": "uint256"
        }
      ],
      "payable": false,
      "stateMutability": "view",
      "type": "function"
    },
    {
      "constant": true,
      "inputs": [],
      "name": "getAuctionsAmount",
      "outputs": [
        {
          "internalType": "uint256",
          "name": "",
          "type": "uint256"
        }
      ],
      "payable": false,
      "stateMutability": "view",
      "type": "function"
    },
    {
      "constant": true,
      "inputs": [
        {
          "internalType": "uint256",
          "name": "_auctionId",
          "type": "uint256"
        }
      ],
      "name": "getAuctionById",
      "outputs": [
        {
          "internalType": "string",
          "name": "name",
          "type": "string"
        },
        {
          "internalType": "uint256",
          "name": "blockDeadline",
          "type": "uint256"
        },
        {
          "internalType": "uint256",
          "name": "startPrice",
          "type": "uint256"
        },
        {
          "internalType": "string",
          "name": "metadata",
          "type": "string"
        },
        {
          "internalType": "uint256",
          "name": "tokenId",
          "type": "uint256"
        },
        {
          "internalType": "address",
          "name": "tokenRepositoryAddress",
          "type": "address"
        },
        {
          "internalType": "address",
          "name": "owner",
          "type": "address"
        },
        {
          "internalType": "bool",
          "name": "active",
          "type": "bool"
        },
        {
          "internalType": "bool",
          "name": "finalized",
          "type": "bool"
        }
      ],
      "payable": false,
      "stateMutability": "view",
      "type": "function"
    },
    {
      "constant": false,
      "inputs": [
        {
          "internalType": "address",
          "name": "_tokenRepositoryAddress",
          "type": "address"
        },
        {
          "internalType": "uint256",
          "name": "_tokenId",
          "type": "uint256"
        },
        {
          "internalType": "string",
          "name": "_auctionTitle",
          "type": "string"
        },
        {
          "internalType": "string",
          "name": "_metadata",
          "type": "string"
        },
        {
          "internalType": "uint256",
          "name": "_startPrice",
          "type": "uint256"
        },
        {
          "internalType": "uint256",
          "name": "_blockDeadline",
          "type": "uint256"
        }
      ],
      "name": "createAuction",
      "outputs": [
        {
          "internalType": "bool",
          "name": "",
          "type": "bool"
        }
      ],
      "payable": false,
      "stateMutability": "nonpayable",
      "type": "function"
    },
    {
      "constant": false,
      "inputs": [
        {
          "internalType": "uint256",
          "name": "_auctionId",
          "type": "uint256"
        }
      ],
      "name": "cancelAuction",
      "outputs": [],
      "payable": false,
      "stateMutability": "nonpayable",
      "type": "function"
    },
    {
      "constant": false,
      "inputs": [
        {
          "internalType": "uint256",
          "name": "_auctionId",
          "type": "uint256"
        }
      ],
      "name": "finalizeAuction",
      "outputs": [],
      "payable": false,
      "stateMutability": "nonpayable",
      "type": "function"
    },
    {
      "constant": false,
      "inputs": [
        {
          "internalType": "uint256",
          "name": "_auctionId",
          "type": "uint256"
        }
      ],
      "name": "bidOnAuction",
      "outputs": [],
      "payable": true,
      "stateMutability": "payable",
      "type": "function"
    }
  ],
  "bytecode": "0x608060405234801561001057600080fd5b50612680806100206000396000f3fe6080604052600436106100c25760003560e01c806396b5a7551161007f578063e1b9658111610059578063e1b96581146106f4578063e68d5e7d146108a9578063e80838631461092b578063f18f3db214610966576100c2565b806396b5a755146105fb578063ab14482614610636578063da11267e14610685576100c2565b806318111ada146100d457806326b7aeea146102855780634c773f3e146102b3578063571a26a0146103595780635f93de491461050a5780637ca941b514610596575b3480156100ce57600080fd5b50600080fd5b3480156100e057600080fd5b5061010d600480360360208110156100f757600080fd5b8101908080359060200190929190505050610991565b60405180806020018a8152602001898152602001806020018881526020018773ffffffffffffffffffffffffffffffffffffffff1673ffffffffffffffffffffffffffffffffffffffff1681526020018673ffffffffffffffffffffffffffffffffffffffff1673ffffffffffffffffffffffffffffffffffffffff168152602001851515151581526020018415151515815260200183810383528c818151815260200191508051906020019080838360005b838110156101db5780820151818401526020810190506101c0565b50505050905090810190601f1680156102085780820380516001836020036101000a031916815260200191505b50838103825289818151815260200191508051906020019080838360005b83811015610241578082015181840152602081019050610226565b50505050905090810190601f16801561026e5780820380516001836020036101000a031916815260200191505b509b50505050505050505050505060405180910390f35b6102b16004803603602081101561029b57600080fd5b8101908080359060200190929190505050610c6c565b005b3480156102bf57600080fd5b50610302600480360360208110156102d657600080fd5b81019080803573ffffffffffffffffffffffffffffffffffffffff1690602001909291905050506111bb565b6040518080602001828103825283818151815260200191508051906020019060200280838360005b8381101561034557808201518184015260208101905061032a565b505050509050019250505060405180910390f35b34801561036557600080fd5b506103926004803603602081101561037c57600080fd5b8101908080359060200190929190505050611257565b60405180806020018a8152602001898152602001806020018881526020018773ffffffffffffffffffffffffffffffffffffffff1673ffffffffffffffffffffffffffffffffffffffff1681526020018673ffffffffffffffffffffffffffffffffffffffff1673ffffffffffffffffffffffffffffffffffffffff168152602001851515151581526020018415151515815260200183810383528c818151815260200191508051906020019080838360005b83811015610460578082015181840152602081019050610445565b50505050905090810190601f16801561048d5780820380516001836020036101000a031916815260200191505b50838103825289818151815260200191508051906020019080838360005b838110156104c65780820151818401526020810190506104ab565b50505050905090810190601f1680156104f35780820380516001836020036101000a031916815260200191505b509b50505050505050505050505060405180910390f35b34801561051657600080fd5b5061054d6004803603604081101561052d57600080fd5b81019080803590602001909291908035906020019092919050505061143c565b604051808373ffffffffffffffffffffffffffffffffffffffff1673ffffffffffffffffffffffffffffffffffffffff1681526020018281526020019250505060405180910390f35b3480156105a257600080fd5b506105e5600480360360208110156105b957600080fd5b81019080803573ffffffffffffffffffffffffffffffffffffffff16906020019092919050505061149a565b6040518082815260200191505060405180910390f35b34801561060757600080fd5b506106346004803603602081101561061e57600080fd5b81019080803590602001909291905050506114e6565b005b34801561064257600080fd5b5061066f6004803603602081101561065957600080fd5b81019080803590602001909291905050506119a7565b6040518082815260200191505060405180910390f35b34801561069157600080fd5b506106de600480360360408110156106a857600080fd5b81019080803573ffffffffffffffffffffffffffffffffffffffff169060200190929190803590602001909291905050506119c7565b6040518082815260200191505060405180910390f35b34801561070057600080fd5b5061088f600480360360c081101561071757600080fd5b81019080803573ffffffffffffffffffffffffffffffffffffffff169060200190929190803590602001909291908035906020019064010000000081111561075e57600080fd5b82018360208201111561077057600080fd5b8035906020019184600183028401116401000000008311171561079257600080fd5b91908080601f016020809104026020016040519081016040528093929190818152602001838380828437600081840152601f19601f820116905080830192505050505050509192919290803590602001906401000000008111156107f557600080fd5b82018360208201111561080757600080fd5b8035906020019184600183028401116401000000008311171561082957600080fd5b91908080601f016020809104026020016040519081016040528093929190818152602001838380828437600081840152601f19601f82011690508083019250505050505050919291929080359060200190929190803590602001909291905050506119f5565b604051808215151515815260200191505060405180910390f35b3480156108b557600080fd5b506108e2600480360360208110156108cc57600080fd5b8101908080359060200190929190505050611dd4565b604051808381526020018273ffffffffffffffffffffffffffffffffffffffff1673ffffffffffffffffffffffffffffffffffffffff1681526020019250505060405180910390f35b34801561093757600080fd5b506109646004803603602081101561094e57600080fd5b8101908080359060200190929190505050611eca565b005b34801561097257600080fd5b5061097b612369565b6040518082815260200191505060405180910390f35b6060600080606060008060008060006109a86124fa565b60008b815481106109b557fe5b906000526020600020906007020160405180610120016040529081600082018054600181600116156101000203166002900480601f016020809104026020016040519081016040528092919081815260200182805460018160011615610100020316600290048015610a685780601f10610a3d57610100808354040283529160200191610a68565b820191906000526020600020905b815481529060010190602001808311610a4b57829003601f168201915b505050505081526020016001820154815260200160028201548152602001600382018054600181600116156101000203166002900480601f016020809104026020016040519081016040528092919081815260200182805460018160011615610100020316600290048015610b1e5780601f10610af357610100808354040283529160200191610b1e565b820191906000526020600020905b815481529060010190602001808311610b0157829003601f168201915b50505050508152602001600482015481526020016005820160009054906101000a900473ffffffffffffffffffffffffffffffffffffffff1673ffffffffffffffffffffffffffffffffffffffff1673ffffffffffffffffffffffffffffffffffffffff1681526020016006820160009054906101000a900473ffffffffffffffffffffffffffffffffffffffff1673ffffffffffffffffffffffffffffffffffffffff1673ffffffffffffffffffffffffffffffffffffffff1681526020016006820160149054906101000a900460ff161515151581526020016006820160159054906101000a900460ff1615151515815250509050806000015181602001518260400151836060015184608001518560a001518660c001518760e00151886101000151889850859550829250995099509950995099509950995099509950509193959799909294969850565b6000349050610c796124fa565b60008381548110610c8657fe5b906000526020600020906007020160405180610120016040529081600082018054600181600116156101000203166002900480601f016020809104026020016040519081016040528092919081815260200182805460018160011615610100020316600290048015610d395780601f10610d0e57610100808354040283529160200191610d39565b820191906000526020600020905b815481529060010190602001808311610d1c57829003601f168201915b505050505081526020016001820154815260200160028201548152602001600382018054600181600116156101000203166002900480601f016020809104026020016040519081016040528092919081815260200182805460018160011615610100020316600290048015610def5780601f10610dc457610100808354040283529160200191610def565b820191906000526020600020905b815481529060010190602001808311610dd257829003601f168201915b50505050508152602001600482015481526020016005820160009054906101000a900473ffffffffffffffffffffffffffffffffffffffff1673ffffffffffffffffffffffffffffffffffffffff1673ffffffffffffffffffffffffffffffffffffffff1681526020016006820160009054906101000a900473ffffffffffffffffffffffffffffffffffffffff1673ffffffffffffffffffffffffffffffffffffffff1673ffffffffffffffffffffffffffffffffffffffff1681526020016006820160149054906101000a900460ff161515151581526020016006820160159054906101000a900460ff16151515158152505090503373ffffffffffffffffffffffffffffffffffffffff168160c0015173ffffffffffffffffffffffffffffffffffffffff161415610f2357600080fd5b8060200151421115610f3457600080fd5b600060016000858152602001908152602001600020805490509050600082604001519050610f60612576565b600083111561100d57600160008781526020019081526020016000206001840381548110610f8a57fe5b90600052602060002090600202016040518060400160405290816000820160009054906101000a900473ffffffffffffffffffffffffffffffffffffffff1673ffffffffffffffffffffffffffffffffffffffff1673ffffffffffffffffffffffffffffffffffffffff1681526020016001820154815250509050806020015191505b8185101561101a57600080fd5b600083111561106a57806000015173ffffffffffffffffffffffffffffffffffffffff166108fc82602001519081150290604051600060405180830381858888f1935050505061106957600080fd5b5b611072612576565b33816000019073ffffffffffffffffffffffffffffffffffffffff16908173ffffffffffffffffffffffffffffffffffffffff16815250508581602001818152505060016000888152602001908152602001600020819080600181540180825580915050906001820390600052602060002090600202016000909192909190915060008201518160000160006101000a81548173ffffffffffffffffffffffffffffffffffffffff021916908373ffffffffffffffffffffffffffffffffffffffff160217905550602082015181600101555050507f5762e6a7d331cd17a1761e94de3ea3b85e90ee6cdd9d1204e361cc650689d4633388604051808373ffffffffffffffffffffffffffffffffffffffff1673ffffffffffffffffffffffffffffffffffffffff1681526020018281526020019250505060405180910390a150505050505050565b606080600260008473ffffffffffffffffffffffffffffffffffffffff1673ffffffffffffffffffffffffffffffffffffffff16815260200190815260200160002080548060200260200160405190810160405280929190818152602001828054801561124757602002820191906000526020600020905b815481526020019060010190808311611233575b5050505050905080915050919050565b6000818154811061126457fe5b9060005260206000209060070201600091509050806000018054600181600116156101000203166002900480601f0160208091040260200160405190810160405280929190818152602001828054600181600116156101000203166002900480156113105780601f106112e557610100808354040283529160200191611310565b820191906000526020600020905b8154815290600101906020018083116112f357829003601f168201915b505050505090806001015490806002015490806003018054600181600116156101000203166002900480601f0160208091040260200160405190810160405280929190818152602001828054600181600116156101000203166002900480156113ba5780601f1061138f576101008083540402835291602001916113ba565b820191906000526020600020905b81548152906001019060200180831161139d57829003601f168201915b5050505050908060040154908060050160009054906101000a900473ffffffffffffffffffffffffffffffffffffffff16908060060160009054906101000a900473ffffffffffffffffffffffffffffffffffffffff16908060060160149054906101000a900460ff16908060060160159054906101000a900460ff16905089565b6001602052816000526040600020818154811061145557fe5b9060005260206000209060020201600091509150508060000160009054906101000a900473ffffffffffffffffffffffffffffffffffffffff16908060010154905082565b6000600260008373ffffffffffffffffffffffffffffffffffffffff1673ffffffffffffffffffffffffffffffffffffffff168152602001908152602001600020805490509050919050565b803373ffffffffffffffffffffffffffffffffffffffff166000828154811061150b57fe5b906000526020600020906007020160060160009054906101000a900473ffffffffffffffffffffffffffffffffffffffff1673ffffffffffffffffffffffffffffffffffffffff161461155d57600080fd5b6115656124fa565b6000838154811061157257fe5b906000526020600020906007020160405180610120016040529081600082018054600181600116156101000203166002900480601f0160208091040260200160405190810160405280929190818152602001828054600181600116156101000203166002900480156116255780601f106115fa57610100808354040283529160200191611625565b820191906000526020600020905b81548152906001019060200180831161160857829003601f168201915b505050505081526020016001820154815260200160028201548152602001600382018054600181600116156101000203166002900480601f0160208091040260200160405190810160405280929190818152602001828054600181600116156101000203166002900480156116db5780601f106116b0576101008083540402835291602001916116db565b820191906000526020600020905b8154815290600101906020018083116116be57829003601f168201915b50505050508152602001600482015481526020016005820160009054906101000a900473ffffffffffffffffffffffffffffffffffffffff1673ffffffffffffffffffffffffffffffffffffffff1673ffffffffffffffffffffffffffffffffffffffff1681526020016006820160009054906101000a900473ffffffffffffffffffffffffffffffffffffffff1673ffffffffffffffffffffffffffffffffffffffff1673ffffffffffffffffffffffffffffffffffffffff1681526020016006820160149054906101000a900460ff161515151581526020016006820160159054906101000a900460ff161515151581525050905060006001600085815260200190815260200160002080549050905060008111156118e2576117fe612576565b60016000868152602001908152602001600020600183038154811061181f57fe5b90600052602060002090600202016040518060400160405290816000820160009054906101000a900473ffffffffffffffffffffffffffffffffffffffff1673ffffffffffffffffffffffffffffffffffffffff1673ffffffffffffffffffffffffffffffffffffffff1681526020016001820154815250509050806000015173ffffffffffffffffffffffffffffffffffffffff166108fc82602001519081150290604051600060405180830381858888f193505050506118e057600080fd5b505b6118fa308360c001518460a001518560800151612375565b156119a157600080858154811061190d57fe5b906000526020600020906007020160060160146101000a81548160ff0219169083151502179055507f39e6c898ce035bbacd9ba4f9753534f8c9f976e0ff70be83cfe887f235afa1d33385604051808373ffffffffffffffffffffffffffffffffffffffff1673ffffffffffffffffffffffffffffffffffffffff1681526020018281526020019250505060405180910390a15b50505050565b600060016000838152602001908152602001600020805490509050919050565b600260205281600052604060002081815481106119e057fe5b90600052602060002001600091509150505481565b6000868660008273ffffffffffffffffffffffffffffffffffffffff16636352211e836040518263ffffffff1660e01b81526004018082815260200191505060206040518083038186803b158015611a4c57600080fd5b505afa158015611a60573d6000803e3d6000fd5b505050506040513d6020811015611a7657600080fd5b810190808051906020019092919050505090503073ffffffffffffffffffffffffffffffffffffffff168173ffffffffffffffffffffffffffffffffffffffff1614611ac157600080fd5b600080805490509050611ad26124fa565b89816000018190525086816020018181525050878160400181815250508881606001819052508a8160800181815250508b8160a0019073ffffffffffffffffffffffffffffffffffffffff16908173ffffffffffffffffffffffffffffffffffffffff1681525050338160c0019073ffffffffffffffffffffffffffffffffffffffff16908173ffffffffffffffffffffffffffffffffffffffff168152505060018160e0019015159081151581525050600081610100019015159081151581525050600081908060018154018082558091505090600182039060005260206000209060070201600090919290919091506000820151816000019080519060200190611bdf9291906125a6565b5060208201518160010155604082015181600201556060820151816003019080519060200190611c109291906125a6565b506080820151816004015560a08201518160050160006101000a81548173ffffffffffffffffffffffffffffffffffffffff021916908373ffffffffffffffffffffffffffffffffffffffff16021790555060c08201518160060160006101000a81548173ffffffffffffffffffffffffffffffffffffffff021916908373ffffffffffffffffffffffffffffffffffffffff16021790555060e08201518160060160146101000a81548160ff0219169083151502179055506101008201518160060160156101000a81548160ff021916908315150217905550505050600260003373ffffffffffffffffffffffffffffffffffffffff1673ffffffffffffffffffffffffffffffffffffffff1681526020019081526020016000208290806001815401808255809150509060018203906000526020600020016000909192909190915055507f3249a06bd478adf780bb7930214ad005e9cfa517d63221c0b77f27199d1a58b33383604051808373ffffffffffffffffffffffffffffffffffffffff1673ffffffffffffffffffffffffffffffffffffffff1681526020018281526020019250505060405180910390a16001955050505050509695505050505050565b60008060006001600085815260200190815260200160002080549050905060008110611eb657611e02612576565b600160008681526020019081526020016000206001830381548110611e2357fe5b90600052602060002090600202016040518060400160405290816000820160009054906101000a900473ffffffffffffffffffffffffffffffffffffffff1673ffffffffffffffffffffffffffffffffffffffff1673ffffffffffffffffffffffffffffffffffffffff168152602001600182015481525050905080602001518160000151809050935093505050611ec5565b60008081915080905092509250505b915091565b611ed26124fa565b60008281548110611edf57fe5b906000526020600020906007020160405180610120016040529081600082018054600181600116156101000203166002900480601f016020809104026020016040519081016040528092919081815260200182805460018160011615610100020316600290048015611f925780601f10611f6757610100808354040283529160200191611f92565b820191906000526020600020905b815481529060010190602001808311611f7557829003601f168201915b505050505081526020016001820154815260200160028201548152602001600382018054600181600116156101000203166002900480601f0160208091040260200160405190810160405280929190818152602001828054600181600116156101000203166002900480156120485780601f1061201d57610100808354040283529160200191612048565b820191906000526020600020905b81548152906001019060200180831161202b57829003601f168201915b50505050508152602001600482015481526020016005820160009054906101000a900473ffffffffffffffffffffffffffffffffffffffff1673ffffffffffffffffffffffffffffffffffffffff1673ffffffffffffffffffffffffffffffffffffffff1681526020016006820160009054906101000a900473ffffffffffffffffffffffffffffffffffffffff1673ffffffffffffffffffffffffffffffffffffffff1673ffffffffffffffffffffffffffffffffffffffff1681526020016006820160149054906101000a900460ff161515151581526020016006820160159054906101000a900460ff1615151515815250509050600060016000848152602001908152602001600020805490509050816020015142101561216b57600080fd5b60008114156121825761217d836114e6565b612364565b61218a612576565b6001600085815260200190815260200160002060018303815481106121ab57fe5b90600052602060002090600202016040518060400160405290816000820160009054906101000a900473ffffffffffffffffffffffffffffffffffffffff1673ffffffffffffffffffffffffffffffffffffffff1673ffffffffffffffffffffffffffffffffffffffff16815260200160018201548152505090508260c0015173ffffffffffffffffffffffffffffffffffffffff166108fc82602001519081150290604051600060405180830381858888f1935050505061226c57600080fd5b6122843082600001518560a001518660800151612375565b1561236257600080858154811061229757fe5b906000526020600020906007020160060160146101000a81548160ff0219169083151502179055506001600085815481106122ce57fe5b906000526020600020906007020160060160156101000a81548160ff0219169083151502179055507f357afab190ee87fe0ef1c717f2728d2904d9e415a069d99f4d9382873cb3279d3385604051808373ffffffffffffffffffffffffffffffffffffffff1673ffffffffffffffffffffffffffffffffffffffff1681526020018281526020019250505060405180910390a15b505b505050565b60008080549050905090565b6000808390508073ffffffffffffffffffffffffffffffffffffffff1663095ea7b386856040518363ffffffff1660e01b8152600401808373ffffffffffffffffffffffffffffffffffffffff1673ffffffffffffffffffffffffffffffffffffffff16815260200182815260200192505050600060405180830381600087803b15801561240257600080fd5b505af1158015612416573d6000803e3d6000fd5b505050508073ffffffffffffffffffffffffffffffffffffffff166323b872dd8787866040518463ffffffff1660e01b8152600401808473ffffffffffffffffffffffffffffffffffffffff1673ffffffffffffffffffffffffffffffffffffffff1681526020018373ffffffffffffffffffffffffffffffffffffffff1673ffffffffffffffffffffffffffffffffffffffff1681526020018281526020019350505050600060405180830381600087803b1580156124d557600080fd5b505af11580156124e9573d6000803e3d6000fd5b505050506001915050949350505050565b6040518061012001604052806060815260200160008152602001600081526020016060815260200160008152602001600073ffffffffffffffffffffffffffffffffffffffff168152602001600073ffffffffffffffffffffffffffffffffffffffff1681526020016000151581526020016000151581525090565b6040518060400160405280600073ffffffffffffffffffffffffffffffffffffffff168152602001600081525090565b828054600181600116156101000203166002900490600052602060002090601f016020900481019282601f106125e757805160ff1916838001178555612615565b82800160010185558215612615579182015b828111156126145782518255916020019190600101906125f9565b5b5090506126229190612626565b5090565b61264891905b8082111561264457600081600090555060010161262c565b5090565b9056fea265627a7a72315820bff5459c76f9621db8a583cf4d2baf9be571ba16be114ee16ccfa929d3230ace64736f6c634300050c0032",
  "source": "pragma solidity >=0.4.18 <0.7.0; \n\nimport \"./TokenRepository.sol\";\n\n/**\n * @title Auction Repository\n * This contracts allows auctions to be created for non-fungible tokens\n * Moreover, it includes the basic functionalities of an auction house\n */\ncontract AuctionRepository{\n    // Bid struct to hold bidder and amount\n    struct Bid {\n        address payable from;\n        uint256 amount;\n    }\n\n    // Auction struct which holds all the required info\n    struct Auction {\n        string name;\n        uint256 blockDeadline;\n        uint256 startPrice;\n        string metadata;\n        uint256 tokenId;\n        address tokenRepositoryAddress;\n        address payable owner;\n        bool active;\n        bool finalized;\n    }\n    \n    // Array with all auctions\n    Auction[] public auctions;\n    \n    // Mapping from auction index to user bids\n    mapping (uint256 => Bid[]) public auctionBids;\n    \n    // Mapping from owner to a list of owned auctions\n    mapping (address => uint[]) public ownedAuctions;\n    \n    event BidSuccess(address _from, uint _auctionId);\n\n    // AuctionCreated is fired when an auction is created\n    event AuctionCreated(address _owner, uint _auctionId);\n\n    // AuctionCanceled is fired when an auction is canceled\n    event AuctionCanceled(address _owner, uint _auctionId);\n\n    // AuctionFinalized is fired when an auction is finalized\n    event AuctionFinalized(address _owner, uint _auctionId);\n    \n    /**\n     * @dev Guarantees msg.sender is owner of the given auction\n     * @param _auctionId uint ID of the auction to validate its ownership belongs to msg.sender\n     */\n    modifier onlyAuctionOwner(uint _auctionId) {\n        require(auctions[_auctionId].owner == msg.sender);\n        _;\n    }\n    \n    /**\n     * @dev Guarantees this contract is owner of the given token\n     * @param _tokenRepositoryAddress address of the token repository to validate from\n     * @param _tokenId uint256 ID of the token which has been registered in the token repository\n     */\n    modifier onlyTokenOwner(address _tokenRepositoryAddress, uint256 _tokenId) {\n        address tokenOwner = TokenRepository(_tokenRepositoryAddress).ownerOf(_tokenId);\n        require(tokenOwner == address(this));\n        _;\n    }\n    \n    /**\n     * @dev Disallow payments to this contract directly\n     */\n    function() external {\n        revert();\n    }\n    \n    /**\n     * @dev Gets the length of auctions\n     * @return uint representing the auction count\n     */\n    function getAuctionsAmount() public view returns(uint) {\n        return auctions.length;\n    }\n    \n    /**\n     * @dev Gets the bid counts of a given auction\n     * @param _auctionId uint ID of the auction\n     */\n    function getBidsAmount(uint _auctionId) public view returns(uint) {\n        return auctionBids[_auctionId].length;\n    } \n    \n    /**\n     * @dev Gets an array of owned auctions\n     * @param _owner address of the auction owner\n     */\n    function getOwnedAuctions(address _owner) public view returns(uint[] memory) {\n        uint[] memory ownedAllAuctions = ownedAuctions[_owner];\n        return ownedAllAuctions;\n    }\n    \n    /**\n     * @dev Gets an array of owned auctions\n     * @param _auctionId uint of the auction owner\n     * @return amount uint256, address of last bidder\n     */\n    function getCurrentBids(uint _auctionId) public view returns(uint256, address) {\n        uint bidsLength = auctionBids[_auctionId].length;\n        // if there are bids refund the last bid\n        if (bidsLength >= 0) {\n            Bid memory lastBid = auctionBids[_auctionId][bidsLength - 1];\n            return (lastBid.amount, lastBid.from);\n        }    \n        return (0, address(0));\n    }\n    \n    /**\n     * @dev Gets the total number of auctions owned by an address\n     * @param _owner address of the owner\n     * @return uint total number of auctions\n     */\n    function getAuctionsAmount(address _owner) public view returns(uint) {\n        return ownedAuctions[_owner].length;\n    }\n    \n    /**\n     * @dev Gets the info of a given auction which are stored within a struct\n     * @param _auctionId uint ID of the auction\n     * @return string name of the auction\n     * @return uint256 timestamp of the auction in which it expires\n     * @return uint256 starting price of the auction\n     * @return string representing the metadata of the auction\n     * @return uint256 ID of the deed registered in DeedRepository\n     * @return address Address of the DeedRepository\n     * @return address owner of the auction\n     * @return bool whether the auction is active\n     * @return bool whether the auction is finalized\n     */\n    function getAuctionById(uint _auctionId) public view returns(\n        string memory name,\n        uint256 blockDeadline,\n        uint256 startPrice,\n        string memory metadata,\n        uint256 tokenId,\n        address tokenRepositoryAddress,\n        address owner,\n        bool active,\n        bool finalized) {\n\n        Auction memory auc = auctions[_auctionId];\n        return (\n            auc.name, \n            auc.blockDeadline, \n            auc.startPrice, \n            auc.metadata, \n            auc.tokenId, \n            auc.tokenRepositoryAddress, \n            auc.owner, \n            auc.active, \n            auc.finalized);\n    }\n    \n    /**\n     * @dev Creates an auction with the given informatin\n     * @param _tokenRepositoryAddress address of the TokenRepository contract\n     * @param _tokenId uint256 of the deed registered in DeedRepository\n     * @param _auctionTitle string containing auction title\n     * @param _metadata string containing auction metadata \n     * @param _startPrice uint256 starting price of the auction\n     * @return bool whether the auction is created\n     */\n    function createAuction(\n        address _tokenRepositoryAddress, \n        uint256 _tokenId, \n        string memory _auctionTitle, \n        string memory _metadata, \n        uint256 _startPrice, \n        uint _blockDeadline\n        ) \n        public onlyTokenOwner(_tokenRepositoryAddress, _tokenId) returns(bool) {\n        uint auctionId = auctions.length;\n        Auction memory newAuction;\n        newAuction.name = _auctionTitle;\n        newAuction.blockDeadline = _blockDeadline;\n        newAuction.startPrice = _startPrice;\n        newAuction.metadata = _metadata;\n        newAuction.tokenId = _tokenId;\n        newAuction.tokenRepositoryAddress = _tokenRepositoryAddress;\n        newAuction.owner = msg.sender;\n        newAuction.active = true;\n        newAuction.finalized = false;\n        \n        auctions.push(newAuction);        \n        ownedAuctions[msg.sender].push(auctionId);\n        \n        emit AuctionCreated(msg.sender, auctionId);\n        return true;\n    }\n    \n    function approveAndTransfer(address _from, address _to, address _tokenRepositoryAddress, uint256 _tokenId) internal returns(bool) {\n        TokenRepository remoteContract = TokenRepository(_tokenRepositoryAddress);\n        remoteContract.approve(_to, _tokenId);\n        remoteContract.transferFrom(_from, _to, _tokenId);\n        return true;\n    }\n    \n    /**\n     * @dev Cancels an ongoing auction by the owner\n     * @dev Deed is transfered back to the auction owner\n     * @dev Bidder is refunded with the initial amount\n     * @param _auctionId uint ID of the created auction\n     */\n    function cancelAuction(uint _auctionId) public onlyAuctionOwner(_auctionId) {\n        Auction memory myAuction = auctions[_auctionId];\n        uint bidsLength = auctionBids[_auctionId].length;\n\n        // if there are bids refund the last bid\n        if( bidsLength > 0 ) {\n            Bid memory lastBid = auctionBids[_auctionId][bidsLength - 1];\n            if(!lastBid.from.send(lastBid.amount)) {\n                revert();\n            }\n        }\n\n        // approve and transfer from this contract to auction owner\n        if(approveAndTransfer(address(this), myAuction.owner, myAuction.tokenRepositoryAddress, myAuction.tokenId)){\n            auctions[_auctionId].active = false;\n            emit AuctionCanceled(msg.sender, _auctionId);\n        }\n    }\n    \n    /**\n     * @dev Finalized an ended auction\n     * @dev The auction should be ended, and there should be at least one bid\n     * @dev On success Deed is transfered to bidder and auction owner gets the amount\n     * @param _auctionId uint ID of the created auction\n     */\n    function finalizeAuction(uint _auctionId) public {\n        Auction memory myAuction = auctions[_auctionId];\n        uint bidsLength = auctionBids[_auctionId].length;\n\n        // 1. if auction not ended just revert\n        if( block.timestamp < myAuction.blockDeadline ) revert();\n        \n        // if there are no bids cancel\n        if(bidsLength == 0) {\n            cancelAuction(_auctionId);\n        }else{\n\n            // 2. the money goes to the auction owner\n            Bid memory lastBid = auctionBids[_auctionId][bidsLength - 1];\n            if(!myAuction.owner.send(lastBid.amount)) {\n                revert();\n            }\n\n            // approve and transfer from this contract to the bid winner \n            if(approveAndTransfer(address(this), lastBid.from, myAuction.tokenRepositoryAddress, myAuction.tokenId)){\n                auctions[_auctionId].active = false;\n                auctions[_auctionId].finalized = true;\n                emit AuctionFinalized(msg.sender, _auctionId);\n            }\n        }\n    }\n    \n    /**\n     * @dev Bidder sends bid on an auction\n     * @dev Auction should be active and not ended\n     * @dev Refund previous bidder if a new bid is valid and placed.\n     * @param _auctionId uint ID of the created auction\n     */\n    function bidOnAuction(uint _auctionId) public payable {\n        uint256 ethAmountSent = msg.value;\n\n        // owner can't bid on their auctions\n        Auction memory myAuction = auctions[_auctionId];\n        if(myAuction.owner == msg.sender) revert();\n\n        // if auction is expired\n        if( block.timestamp > myAuction.blockDeadline ) revert();\n\n        uint bidsLength = auctionBids[_auctionId].length;\n        uint256 tempAmount = myAuction.startPrice;\n        Bid memory lastBid;\n\n        // there are previous bids\n        if( bidsLength > 0 ) {\n            lastBid = auctionBids[_auctionId][bidsLength - 1];\n            tempAmount = lastBid.amount;\n        }\n\n        // check if amound is greater than previous amount  \n        if( ethAmountSent < tempAmount ) revert(); \n\n        // refund the last bidder\n        if( bidsLength > 0 ) {\n            if(!lastBid.from.send(lastBid.amount)) {\n                revert();\n            }  \n        }\n\n        // insert bid \n        Bid memory newBid;\n        newBid.from = msg.sender;\n        newBid.amount = ethAmountSent;\n        auctionBids[_auctionId].push(newBid);\n        emit BidSuccess(msg.sender, _auctionId);\n    }\n}\n\n\n",
  "sourcePath": "F:/Auction DApp/backend/contracts/AuctionRepository.sol",
  "compiler": {
    "name": "solc",
    "version": "0.5.12+commit.7709ece9.Emscripten.clang"
  },
  "schemaVersion": "3.0.20",
  "updatedAt": "2020-01-15T09:15:10.873Z",
  "networkType": "ethereum",
  "devdoc": {
    "methods": {
      "bidOnAuction(uint256)": {
        "details": "Bidder sends bid on an auctionAuction should be active and not endedRefund previous bidder if a new bid is valid and placed.",
        "params": {
          "_auctionId": "uint ID of the created auction"
        }
      },
      "cancelAuction(uint256)": {
        "details": "Cancels an ongoing auction by the ownerDeed is transfered back to the auction ownerBidder is refunded with the initial amount",
        "params": {
          "_auctionId": "uint ID of the created auction"
        }
      },
      "createAuction(address,uint256,string,string,uint256,uint256)": {
        "details": "Creates an auction with the given informatin",
        "params": {
          "_auctionTitle": "string containing auction title",
          "_metadata": "string containing auction metadata ",
          "_startPrice": "uint256 starting price of the auction",
          "_tokenId": "uint256 of the deed registered in DeedRepository",
          "_tokenRepositoryAddress": "address of the TokenRepository contract"
        },
        "return": "bool whether the auction is created"
      },
      "finalizeAuction(uint256)": {
        "details": "Finalized an ended auctionThe auction should be ended, and there should be at least one bidOn success Deed is transfered to bidder and auction owner gets the amount",
        "params": {
          "_auctionId": "uint ID of the created auction"
        }
      },
      "getAuctionById(uint256)": {
        "details": "Gets the info of a given auction which are stored within a struct",
        "params": {
          "_auctionId": "uint ID of the auction"
        },
        "return": "string name of the auctionuint256 timestamp of the auction in which it expiresuint256 starting price of the auctionstring representing the metadata of the auctionuint256 ID of the deed registered in DeedRepositoryaddress Address of the DeedRepositoryaddress owner of the auctionbool whether the auction is activebool whether the auction is finalized"
      },
      "getAuctionsAmount()": {
        "details": "Gets the length of auctions",
        "return": "uint representing the auction count"
      },
      "getAuctionsAmount(address)": {
        "details": "Gets the total number of auctions owned by an address",
        "params": {
          "_owner": "address of the owner"
        },
        "return": "uint total number of auctions"
      },
      "getBidsAmount(uint256)": {
        "details": "Gets the bid counts of a given auction",
        "params": {
          "_auctionId": "uint ID of the auction"
        }
      },
      "getCurrentBids(uint256)": {
        "details": "Gets an array of owned auctions",
        "params": {
          "_auctionId": "uint of the auction owner"
        },
        "return": "amount uint256, address of last bidder"
      },
      "getOwnedAuctions(address)": {
        "details": "Gets an array of owned auctions",
        "params": {
          "_owner": "address of the auction owner"
        }
      }
    },
    "title": "Auction Repository This contracts allows auctions to be created for non-fungible tokens Moreover, it includes the basic functionalities of an auction house"
  },
  "userdoc": {
    "methods": {}
  }
}