{
  "contractName": "ERC721TokenReceiver",
  "abi": [
    {
      "constant": false,
      "inputs": [
        {
          "internalType": "address",
          "name": "_from",
          "type": "address"
        },
        {
          "internalType": "uint256",
          "name": "_tokenId",
          "type": "uint256"
        },
        {
          "internalType": "bytes",
          "name": "_data",
          "type": "bytes"
        }
      ],
      "name": "onERC721Received",
      "outputs": [
        {
          "internalType": "uint256",
          "name": "",
          "type": "uint256"
        }
      ],
      "payable": false,
      "stateMutability": "nonpayable",
      "type": "function"
    }
  ],
  "bytecode": "0x608060405234801561001057600080fd5b5061016e806100206000396000f3fe608060405234801561001057600080fd5b506004361061002b5760003560e01c8063f0b9e5ba14610030575b600080fd5b6101136004803603606081101561004657600080fd5b81019080803573ffffffffffffffffffffffffffffffffffffffff169060200190929190803590602001909291908035906020019064010000000081111561008d57600080fd5b82018360208201111561009f57600080fd5b803590602001918460018302840111640100000000831117156100c157600080fd5b91908080601f016020809104026020016040519081016040528093929190818152602001838380828437600081840152601f19601f820116905080830192505050505050509192919290505050610129565b6040518082815260200191505060405180910390f35b600063f0b9e5ba9050939250505056fea265627a7a723158207dd690b2e9424d80f6f2d75a18b502229618919ab8895f62264d89e87b12285d64736f6c634300050c0032",
  "source": "pragma solidity >=0.4.20 <0.7.0;\r\n\r\nimport \"./ERC721TokenReceiverInterface.sol\";\r\n\r\ncontract ERC721TokenReceiver is ERC721TokenReceiverInterface {\r\n    /**\r\n     * @dev Magic value to be returned upon successful reception of an NFT\r\n     *  Equals to `bytes4(keccak256(\"onERC721Received(address,uint256,bytes)\"))`,\r\n     *  which can be also obtained as `ERC721Receiver(0).onERC721Received.selector`\r\n     */\r\n  \r\n  function onERC721Received(address _from, uint256 _tokenId, bytes memory _data) public returns(uint) {\r\n      return 0xf0b9e5ba;\r\n  }\r\n}\r\n",
  "sourcePath": "F:\\Auction DApp\\backend\\contracts\\ERC721Token\\ERC721TokenReceiver.sol",
  "compiler": {
    "name": "solc",
    "version": "0.5.12+commit.7709ece9.Emscripten.clang"
  },
  "schemaVersion": "3.0.20",
  "updatedAt": "2020-01-15T09:15:10.799Z",
  "networkType": "ethereum",
  "devdoc": {
    "methods": {
      "onERC721Received(address,uint256,bytes)": {
        "details": "Magic value to be returned upon successful reception of an NFT Equals to `bytes4(keccak256(\"onERC721Received(address,uint256,bytes)\"))`, which can be also obtained as `ERC721Receiver(0).onERC721Received.selector`"
      }
    }
  },
  "userdoc": {
    "methods": {}
  }
}