{
  "contractName": "ERC721BasicToken",
  "abi": [
    {
      "anonymous": false,
      "inputs": [
        {
          "indexed": true,
          "internalType": "address",
          "name": "_owner",
          "type": "address"
        },
        {
          "indexed": true,
          "internalType": "address",
          "name": "_approved",
          "type": "address"
        },
        {
          "indexed": true,
          "internalType": "uint256",
          "name": "_tokenId",
          "type": "uint256"
        }
      ],
      "name": "Approval",
      "type": "event"
    },
    {
      "anonymous": false,
      "inputs": [
        {
          "indexed": true,
          "internalType": "address",
          "name": "_owner",
          "type": "address"
        },
        {
          "indexed": true,
          "internalType": "address",
          "name": "_operator",
          "type": "address"
        },
        {
          "indexed": false,
          "internalType": "bool",
          "name": "_approved",
          "type": "bool"
        }
      ],
      "name": "ApprovalForAll",
      "type": "event"
    },
    {
      "anonymous": false,
      "inputs": [
        {
          "indexed": true,
          "internalType": "address",
          "name": "_from",
          "type": "address"
        },
        {
          "indexed": true,
          "internalType": "address",
          "name": "_to",
          "type": "address"
        },
        {
          "indexed": true,
          "internalType": "uint256",
          "name": "_tokenId",
          "type": "uint256"
        }
      ],
      "name": "Transfer",
      "type": "event"
    },
    {
      "constant": false,
      "inputs": [
        {
          "internalType": "address",
          "name": "_from",
          "type": "address"
        },
        {
          "internalType": "uint256",
          "name": "_tokenId",
          "type": "uint256"
        },
        {
          "internalType": "bytes",
          "name": "_data",
          "type": "bytes"
        }
      ],
      "name": "onERC721Received",
      "outputs": [
        {
          "internalType": "uint256",
          "name": "",
          "type": "uint256"
        }
      ],
      "payable": false,
      "stateMutability": "nonpayable",
      "type": "function"
    },
    {
      "constant": true,
      "inputs": [
        {
          "internalType": "address",
          "name": "_owner",
          "type": "address"
        }
      ],
      "name": "balanceOf",
      "outputs": [
        {
          "internalType": "uint256",
          "name": "",
          "type": "uint256"
        }
      ],
      "payable": false,
      "stateMutability": "view",
      "type": "function"
    },
    {
      "constant": true,
      "inputs": [
        {
          "internalType": "uint256",
          "name": "_tokenId",
          "type": "uint256"
        }
      ],
      "name": "ownerOf",
      "outputs": [
        {
          "internalType": "address",
          "name": "",
          "type": "address"
        }
      ],
      "payable": false,
      "stateMutability": "view",
      "type": "function"
    },
    {
      "constant": true,
      "inputs": [
        {
          "internalType": "uint256",
          "name": "_tokenId",
          "type": "uint256"
        }
      ],
      "name": "exists",
      "outputs": [
        {
          "internalType": "bool",
          "name": "",
          "type": "bool"
        }
      ],
      "payable": false,
      "stateMutability": "view",
      "type": "function"
    },
    {
      "constant": false,
      "inputs": [
        {
          "internalType": "address",
          "name": "_to",
          "type": "address"
        },
        {
          "internalType": "uint256",
          "name": "_tokenId",
          "type": "uint256"
        }
      ],
      "name": "approve",
      "outputs": [],
      "payable": true,
      "stateMutability": "payable",
      "type": "function"
    },
    {
      "constant": true,
      "inputs": [
        {
          "internalType": "uint256",
          "name": "_tokenId",
          "type": "uint256"
        }
      ],
      "name": "getApproved",
      "outputs": [
        {
          "internalType": "address",
          "name": "",
          "type": "address"
        }
      ],
      "payable": false,
      "stateMutability": "view",
      "type": "function"
    },
    {
      "constant": false,
      "inputs": [
        {
          "internalType": "address",
          "name": "_to",
          "type": "address"
        },
        {
          "internalType": "bool",
          "name": "_approved",
          "type": "bool"
        }
      ],
      "name": "setApprovalForAll",
      "outputs": [],
      "payable": false,
      "stateMutability": "nonpayable",
      "type": "function"
    },
    {
      "constant": true,
      "inputs": [
        {
          "internalType": "address",
          "name": "_owner",
          "type": "address"
        },
        {
          "internalType": "address",
          "name": "_operator",
          "type": "address"
        }
      ],
      "name": "isApprovedForAll",
      "outputs": [
        {
          "internalType": "bool",
          "name": "",
          "type": "bool"
        }
      ],
      "payable": false,
      "stateMutability": "view",
      "type": "function"
    },
    {
      "constant": false,
      "inputs": [
        {
          "internalType": "address",
          "name": "_from",
          "type": "address"
        },
        {
          "internalType": "address",
          "name": "_to",
          "type": "address"
        },
        {
          "internalType": "uint256",
          "name": "_tokenId",
          "type": "uint256"
        }
      ],
      "name": "transferFrom",
      "outputs": [],
      "payable": true,
      "stateMutability": "payable",
      "type": "function"
    },
    {
      "constant": false,
      "inputs": [
        {
          "internalType": "address",
          "name": "_from",
          "type": "address"
        },
        {
          "internalType": "address",
          "name": "_to",
          "type": "address"
        },
        {
          "internalType": "uint256",
          "name": "_tokenId",
          "type": "uint256"
        }
      ],
      "name": "safeTransferFrom",
      "outputs": [],
      "payable": true,
      "stateMutability": "payable",
      "type": "function"
    },
    {
      "constant": false,
      "inputs": [
        {
          "internalType": "address",
          "name": "_from",
          "type": "address"
        },
        {
          "internalType": "address",
          "name": "_to",
          "type": "address"
        },
        {
          "internalType": "uint256",
          "name": "_tokenId",
          "type": "uint256"
        },
        {
          "internalType": "bytes",
          "name": "_data",
          "type": "bytes"
        }
      ],
      "name": "safeTransferFrom",
      "outputs": [],
      "payable": true,
      "stateMutability": "payable",
      "type": "function"
    }
  ],
  "bytecode": "0x608060405234801561001057600080fd5b50611317806100206000396000f3fe60806040526004361061009c5760003560e01c80636352211e116100645780636352211e1461029957806370a0823114610314578063a22cb46514610379578063b88d4fde146103d6578063e985e9c5146104db578063f0b9e5ba146105645761009c565b8063081812fc146100a1578063095ea7b31461011c57806323b872dd1461016a57806342842e0e146101d85780634f558e7914610246575b600080fd5b3480156100ad57600080fd5b506100da600480360360208110156100c457600080fd5b810190808035906020019092919050505061066a565b604051808273ffffffffffffffffffffffffffffffffffffffff1673ffffffffffffffffffffffffffffffffffffffff16815260200191505060405180910390f35b6101686004803603604081101561013257600080fd5b81019080803573ffffffffffffffffffffffffffffffffffffffff169060200190929190803590602001909291905050506106a7565b005b6101d66004803603606081101561018057600080fd5b81019080803573ffffffffffffffffffffffffffffffffffffffff169060200190929190803573ffffffffffffffffffffffffffffffffffffffff1690602001909291908035906020019092919050505061085f565b005b610244600480360360608110156101ee57600080fd5b81019080803573ffffffffffffffffffffffffffffffffffffffff169060200190929190803573ffffffffffffffffffffffffffffffffffffffff16906020019092919080359060200190929190505050610966565b005b34801561025257600080fd5b5061027f6004803603602081101561026957600080fd5b81019080803590602001909291905050506109c1565b604051808215151515815260200191505060405180910390f35b3480156102a557600080fd5b506102d2600480360360208110156102bc57600080fd5b8101908080359060200190929190505050610a0f565b604051808273ffffffffffffffffffffffffffffffffffffffff1673ffffffffffffffffffffffffffffffffffffffff16815260200191505060405180910390f35b34801561032057600080fd5b506103636004803603602081101561033757600080fd5b81019080803573ffffffffffffffffffffffffffffffffffffffff169060200190929190505050610a8a565b6040518082815260200191505060405180910390f35b34801561038557600080fd5b506103d46004803603604081101561039c57600080fd5b81019080803573ffffffffffffffffffffffffffffffffffffffff169060200190929190803515159060200190929190505050610b0c565b005b6104d9600480360360808110156103ec57600080fd5b81019080803573ffffffffffffffffffffffffffffffffffffffff169060200190929190803573ffffffffffffffffffffffffffffffffffffffff169060200190929190803590602001909291908035906020019064010000000081111561045357600080fd5b82018360208201111561046557600080fd5b8035906020019184600183028401116401000000008311171561048757600080fd5b91908080601f016020809104026020016040519081016040528093929190818152602001838380828437600081840152601f19601f820116905080830192505050505050509192919290505050610c46565b005b3480156104e757600080fd5b5061054a600480360360408110156104fe57600080fd5b81019080803573ffffffffffffffffffffffffffffffffffffffff169060200190929190803573ffffffffffffffffffffffffffffffffffffffff169060200190929190505050610c81565b604051808215151515815260200191505060405180910390f35b34801561057057600080fd5b506106546004803603606081101561058757600080fd5b81019080803573ffffffffffffffffffffffffffffffffffffffff16906020019092919080359060200190929190803590602001906401000000008111156105ce57600080fd5b8201836020820111156105e057600080fd5b8035906020019184600183028401116401000000008311171561060257600080fd5b91908080601f016020809104026020016040519081016040528093929190818152602001838380828437600081840152601f19601f820116905080830192505050505050509192919290505050610d15565b6040518082815260200191505060405180910390f35b60006001600083815260200190815260200160002060009054906101000a900473ffffffffffffffffffffffffffffffffffffffff169050919050565b60006106b282610a0f565b90508073ffffffffffffffffffffffffffffffffffffffff168373ffffffffffffffffffffffffffffffffffffffff1614156106ed57600080fd5b8073ffffffffffffffffffffffffffffffffffffffff163373ffffffffffffffffffffffffffffffffffffffff16148061072d575061072c8133610c81565b5b61073657600080fd5b600073ffffffffffffffffffffffffffffffffffffffff166107578361066a565b73ffffffffffffffffffffffffffffffffffffffff161415806107a75750600073ffffffffffffffffffffffffffffffffffffffff168373ffffffffffffffffffffffffffffffffffffffff1614155b1561085a57826001600084815260200190815260200160002060006101000a81548173ffffffffffffffffffffffffffffffffffffffff021916908373ffffffffffffffffffffffffffffffffffffffff160217905550818373ffffffffffffffffffffffffffffffffffffffff168273ffffffffffffffffffffffffffffffffffffffff167f8c5be1e5ebec7d5bd14f71427d1e84f3dd0314c0f7b2291e5b200ac8c7c3b92560405160405180910390a45b505050565b8061086a3382610d25565b61087357600080fd5b600073ffffffffffffffffffffffffffffffffffffffff168473ffffffffffffffffffffffffffffffffffffffff1614156108ad57600080fd5b600073ffffffffffffffffffffffffffffffffffffffff168373ffffffffffffffffffffffffffffffffffffffff1614156108e757600080fd5b6108f18483610de4565b6108fb8483610f69565b610905838361104f565b818373ffffffffffffffffffffffffffffffffffffffff168573ffffffffffffffffffffffffffffffffffffffff167fddf252ad1be2c89b69c2b068fc378daa952ba7f163c4a11628f55a4df523b3ef60405160405180910390a450505050565b806109713382610d25565b61097a57600080fd5b6109bb8484846040518060400160405280600181526020017f2000000000000000000000000000000000000000000000000000000000000000815250610c46565b50505050565b6000806109cd83610a0f565b9050600073ffffffffffffffffffffffffffffffffffffffff168173ffffffffffffffffffffffffffffffffffffffff161415610a0957600080fd5b50919050565b60008060008084815260200190815260200160002060009054906101000a900473ffffffffffffffffffffffffffffffffffffffff169050600073ffffffffffffffffffffffffffffffffffffffff168173ffffffffffffffffffffffffffffffffffffffff161415610a8157600080fd5b80915050919050565b60008073ffffffffffffffffffffffffffffffffffffffff168273ffffffffffffffffffffffffffffffffffffffff161415610ac557600080fd5b600260008373ffffffffffffffffffffffffffffffffffffffff1673ffffffffffffffffffffffffffffffffffffffff168152602001908152602001600020549050919050565b3373ffffffffffffffffffffffffffffffffffffffff168273ffffffffffffffffffffffffffffffffffffffff161415610b4557600080fd5b80600360003373ffffffffffffffffffffffffffffffffffffffff1673ffffffffffffffffffffffffffffffffffffffff16815260200190815260200160002060008473ffffffffffffffffffffffffffffffffffffffff1673ffffffffffffffffffffffffffffffffffffffff16815260200190815260200160002060006101000a81548160ff0219169083151502179055508173ffffffffffffffffffffffffffffffffffffffff163373ffffffffffffffffffffffffffffffffffffffff167f17307eab39ab6107e8899845ad3d59bd9653f200f220920489ca2b5937696c3183604051808215151515815260200191505060405180910390a35050565b81610c513382610d25565b610c5a57600080fd5b610c6585858561085f565b610c718585858561115e565b610c7a57600080fd5b5050505050565b6000600360008473ffffffffffffffffffffffffffffffffffffffff1673ffffffffffffffffffffffffffffffffffffffff16815260200190815260200160002060008373ffffffffffffffffffffffffffffffffffffffff1673ffffffffffffffffffffffffffffffffffffffff16815260200190815260200160002060009054906101000a900460ff16905092915050565b600063f0b9e5ba90509392505050565b60008060008084815260200190815260200160002060009054906101000a900473ffffffffffffffffffffffffffffffffffffffff169050610d668361066a565b73ffffffffffffffffffffffffffffffffffffffff168473ffffffffffffffffffffffffffffffffffffffff161480610dca57508073ffffffffffffffffffffffffffffffffffffffff168473ffffffffffffffffffffffffffffffffffffffff16145b80610ddb5750610dda8185610c81565b5b91505092915050565b8173ffffffffffffffffffffffffffffffffffffffff1660008083815260200190815260200160002060009054906101000a900473ffffffffffffffffffffffffffffffffffffffff1673ffffffffffffffffffffffffffffffffffffffff1614610e4e57600080fd5b600073ffffffffffffffffffffffffffffffffffffffff166001600083815260200190815260200160002060009054906101000a900473ffffffffffffffffffffffffffffffffffffffff1673ffffffffffffffffffffffffffffffffffffffff1614610f655760006001600083815260200190815260200160002060006101000a81548173ffffffffffffffffffffffffffffffffffffffff021916908373ffffffffffffffffffffffffffffffffffffffff16021790555080600073ffffffffffffffffffffffffffffffffffffffff168373ffffffffffffffffffffffffffffffffffffffff167f8c5be1e5ebec7d5bd14f71427d1e84f3dd0314c0f7b2291e5b200ac8c7c3b92560405160405180910390a45b5050565b610f7281610a0f565b73ffffffffffffffffffffffffffffffffffffffff168273ffffffffffffffffffffffffffffffffffffffff1614610fa957600080fd5b600260008373ffffffffffffffffffffffffffffffffffffffff1673ffffffffffffffffffffffffffffffffffffffff1681526020019081526020016000206000815480929190600190039190505550600080600083815260200190815260200160002060006101000a81548173ffffffffffffffffffffffffffffffffffffffff021916908373ffffffffffffffffffffffffffffffffffffffff1602179055505050565b600073ffffffffffffffffffffffffffffffffffffffff1660008083815260200190815260200160002060009054906101000a900473ffffffffffffffffffffffffffffffffffffffff1673ffffffffffffffffffffffffffffffffffffffff16146110ba57600080fd5b8160008083815260200190815260200160002060006101000a81548173ffffffffffffffffffffffffffffffffffffffff021916908373ffffffffffffffffffffffffffffffffffffffff160217905550600260008373ffffffffffffffffffffffffffffffffffffffff1673ffffffffffffffffffffffffffffffffffffffff168152602001908152602001600020600081548092919060010191905055505050565b60003073ffffffffffffffffffffffffffffffffffffffff168473ffffffffffffffffffffffffffffffffffffffff161461119c57600190506112da565b60008473ffffffffffffffffffffffffffffffffffffffff1663f0b9e5ba8786866040518463ffffffff1660e01b8152600401808473ffffffffffffffffffffffffffffffffffffffff1673ffffffffffffffffffffffffffffffffffffffff16815260200183815260200180602001828103825283818151815260200191508051906020019080838360005b83811015611244578082015181840152602081019050611229565b50505050905090810190601f1680156112715780820380516001836020036101000a031916815260200191505b50945050505050602060405180830381600087803b15801561129257600080fd5b505af11580156112a6573d6000803e3d6000fd5b505050506040513d60208110156112bc57600080fd5b8101908080519060200190929190505050905063f0b9e5ba81149150505b94935050505056fea265627a7a723158202acb65f30c82b7f121fb7cf778c7755b6f28dfef6d0ca786002a01960a3f0ecc64736f6c634300050c0032",
  "source": "pragma solidity >=0.4.20 <0.7.0;\r\n\r\nimport \"./ERC721Interface.sol\";\r\nimport \"./ERC721OptionalInterface.sol\";\r\nimport \"./ERC721TokenReceiver.sol\";\r\n\r\n/**\r\n * @title ERC721 Non-Fungible Token Standard basic implementation\r\n * @dev see https://github.com/ethereum/EIPs/blob/master/EIPS/eip-721.md\r\n */\r\n contract ERC721BasicToken is ERC721Interface, ERC721TokenReceiver {\r\n     // Equals to `bytes4(keccak256(\"onERC721Received(address,uint256,bytes)\"))`\r\n     // which can be also obtained as `ERC721Receiver(0).onERC721Received.selector`\r\n     //bytes constant ERC721_RECEIVED = bytes(keccak256(\"onERC721Received(address,uint256,bytes)\"));\r\n     //bytes constant ERC721_RECEIVED = 0xf0b9e5ba;\r\n     \r\n     // Mapping from token ID to owner\r\n     mapping(uint256 => address) internal tokenOwner;\r\n     \r\n     // Mapping from token ID to approved address\r\n     mapping(uint256 => address) internal tokenApprovals;\r\n     \r\n     // Mapping from owner to number of owned token\r\n     mapping(address => uint256) internal ownedTokensAmount;\r\n      \r\n     // Mapping from owner to operator approvals\r\n     mapping(address => mapping(address => bool)) internal operatorApprovals;\r\n      \r\n     /**\r\n      * @dev Guarantees msg.sender is owner of the given token\r\n      * @param _tokenId uint256 ID of the token to validate its ownership belongs to msg.sender\r\n      */\r\n     modifier onlyOwner(uint256 _tokenId) {\r\n         require(ownerOf(_tokenId) == msg.sender);\r\n         _;\r\n         \r\n     }\r\n      \r\n     /**\r\n      * @dev Checks msg.sender can transfer a token, by being owner, approved, or operator\r\n      * @param _tokenId uint256 ID of the token to validate\r\n      */\r\n     modifier canTransfer(uint256 _tokenId){\r\n         require(isApprovedOrOwner(msg.sender, _tokenId));\r\n         _;\r\n     }\r\n      \r\n      /**\r\n        * @dev Gets the balance of the specified address\r\n        * @param _owner address to query the balance of\r\n        * @return uint256 representing the amount owned by the passed address\r\n        */\r\n      function balanceOf(address _owner) public view returns(uint256) {\r\n          require(_owner != address(0));\r\n          return ownedTokensAmount[_owner];\r\n      }\r\n      \r\n     /**\r\n      * @dev Gets the owner of the specified token ID\r\n      * @param _tokenId uint256 ID of the token to query the owner of\r\n      * @return owner address currently marked as the owner of the given token ID\r\n      */\r\n     function ownerOf(uint256 _tokenId) public view returns(address) {\r\n         address owner = tokenOwner[_tokenId];\r\n         require(owner != address(0));\r\n         return owner;\r\n     }\r\n      \r\n     /**\r\n      * @dev Returns whether the specified token exists\r\n      * @param _tokenId uint256 ID of the token to query the existance of\r\n      * @return whether the token exists\r\n      */\r\n     function exists(uint256 _tokenId) public view returns(bool) {\r\n         address owner = ownerOf(_tokenId);\r\n         require(owner != address(0));\r\n     }\r\n      \r\n     /**\r\n      * @dev Approves another address to transfer the given token ID\r\n      * @dev The zero address indicates there is no approved address.\r\n      * @dev There can only be one approved address per token at a given time.\r\n      * @dev Can only be called by the token owner or an approved operator.\r\n      * @param _to address to be approved for the given token ID\r\n      * @param _tokenId uint256 ID of the token to be approved\r\n      */\r\n     function approve(address _to, uint256  _tokenId) public payable {\r\n         address owner = ownerOf(_tokenId);\r\n         require(_to != owner);\r\n         require(msg.sender == owner || isApprovedForAll(owner, msg.sender));\r\n         if (getApproved(_tokenId) != address(0) || _to != address(0)){\r\n             tokenApprovals[_tokenId] = _to;\r\n             emit Approval(owner, _to, _tokenId);\r\n         }\r\n     }\r\n      \r\n     /**\r\n      * @dev Gets the approved address for a token ID, or zero if no address set\r\n      * @param _tokenId uint256 ID of the token to query the approval of\r\n      * @return address currently approved for a the given token ID\r\n      */\r\n     function getApproved(uint256 _tokenId) public view returns(address) {\r\n         return tokenApprovals[_tokenId];\r\n     }\r\n      \r\n     /**\r\n      * @dev Sets or unsets the approval of a given operator\r\n      * @dev An operator is allowed to transfer all tokens of the sender on their behalf\r\n      * @param _to operator address to set the approval\r\n      * @param _approved representing the status of the approval to be set\r\n      */\r\n     function setApprovalForAll(address _to, bool _approved) public {\r\n         require(_to != msg.sender);\r\n         operatorApprovals[msg.sender][_to] = _approved;\r\n         emit ApprovalForAll(msg.sender, _to, _approved);\r\n     }\r\n      \r\n     /**\r\n      * @dev Tells whether an operator is approved by a given owner\r\n      * @param _owner owner address which you want to query the approval of\r\n      * @param _operator operator address which you want to query the approval of\r\n      * @return bool whether the given operator is approved by the given owner\r\n      */\r\n     function isApprovedForAll(address _owner, address _operator) public view returns(bool) {\r\n         return operatorApprovals[_owner][_operator];\r\n     }\r\n        \r\n      \r\n     /**\r\n      * @dev Returns whether the given spender can transfer a given token ID\r\n      * @param _spender address of the spender to query\r\n      * @param _tokenId uint256 ID of the token to be transferred\r\n      * @return bool whether the msg.sender is approved for the given token ID,\r\n      *  is an operator of the owner, or is the owner of the token\r\n      */\r\n     function isApprovedOrOwner(address _spender, uint256 _tokenId) internal view returns(bool) {\r\n         address owner = tokenOwner[_tokenId];\r\n         return _spender==getApproved(_tokenId) || _spender==owner || isApprovedForAll(owner, _spender);\r\n     }\r\n       \r\n     /**\r\n      * @dev Internal function to clear current approval of a given token ID\r\n      * @dev Reverts if the given address is not indeed the owner of the token\r\n      * @param _owner owner of the token\r\n      * @param _tokenId uint256 ID of the token to be transferred\r\n      */\r\n     function clearApproval(address _owner, uint256 _tokenId) internal {\r\n         require(tokenOwner[_tokenId] == _owner);\r\n         if (tokenApprovals[_tokenId] != address(0)) {\r\n             tokenApprovals[_tokenId] = address(0);\r\n             emit Approval(_owner, address(0), _tokenId);\r\n             \r\n         }\r\n     }\r\n       \r\n     /**\r\n      * @dev Internal function to remove a token ID from the list of a given address\r\n      * @param _from address representing the previous owner of the given token ID\r\n      * @param _tokenId uint256 ID of the token to be removed from the tokens list of the given address\r\n      */\r\n     function removeTokenFrom(address _from, uint256 _tokenId)  internal {\r\n         require(_from==ownerOf(_tokenId));\r\n         ownedTokensAmount[_from]--;\r\n         tokenOwner[_tokenId] = address(0);\r\n     }\r\n       \r\n     /**\r\n      * @dev Internal function to add a token ID to the list of a given address\r\n      * @param _to address representing the new owner of the given token ID\r\n      * @param _tokenId uint256 ID of the token to be added to the tokens list of the given address\r\n      */\r\n     function addTokenTo(address _to, uint256 _tokenId) internal {\r\n         require(tokenOwner[_tokenId] == address(0));\r\n         tokenOwner[_tokenId] = _to;\r\n         ownedTokensAmount[_to]++;\r\n     }\r\n       \r\n     /**\r\n      * @dev Transfers the ownership of a given token ID to another address\r\n      * @dev Usage of this method is discouraged, use `safeTransferFrom` whenever possible\r\n      * @dev Requires the msg sender to be the owner, approved, or operator\r\n      * @param _from current owner of the token\r\n      * @param _to address to receive the ownership of the given token ID\r\n      * @param _tokenId uint256 ID of the token to be transferred\r\n      */ \r\n     function transferFrom(address _from, address _to, uint256 _tokenId) public payable canTransfer(_tokenId) {\r\n        require(_from != address(0));\r\n        require(_to != address(0));\r\n          \r\n        clearApproval(_from, _tokenId);\r\n        removeTokenFrom(_from,_tokenId);\r\n        addTokenTo(_to, _tokenId);\r\n        emit Transfer(_from, _to, _tokenId);\r\n     }\r\n      \r\n     /**\r\n      * @dev Internal function to invoke `onERC721Received` on a target address\r\n      * @dev The call is not executed if the target address is not a contract\r\n      * @param _from address representing the previous owner of the given token ID\r\n      * @param _to target address that will receive the tokens\r\n      * @param _tokenId uint256 ID of the token to be transferred\r\n      * @param _data bytes optional data to send along with the call\r\n      * @return whether the call correctly returned the expected magic value\r\n      */\r\n     function checkAndCallSafeTransfer(address _from, address _to, uint256 _tokenId, bytes memory _data) internal returns(bool) {\r\n         if(_to!=address(this)) {\r\n             return true;\r\n             }\r\n             uint retval = ERC721TokenReceiver(_to).onERC721Received(_from, _tokenId, _data);\r\n             //bytes memory ERC721_RECEIVED = 0xf0b9e5ba;\r\n             return (retval == 0xf0b9e5ba);\r\n         }\r\n    \r\n        \r\n      \r\n     /**\r\n      * @dev Safely transfers the ownership of a given token ID to another address\r\n      * @dev If the target address is a contract, it must implement `onERC721Received`,\r\n      *  which is called upon a safe transfer, and return the magic value\r\n      *  `bytes4(keccak256(\"onERC721Received(address,uint256,bytes)\"))`; otherwise,\r\n      *  the transfer is reverted.\r\n      * @dev Requires the msg sender to be the owner, approved, or operator\r\n      * @param _from current owner of the token\r\n      * @param _to address to receive the ownership of the given token ID\r\n      * @param _tokenId uint256 ID of the token to be transferred\r\n      */\r\n     function safeTransferFrom(address _from, address _to, uint256 _tokenId) public payable canTransfer(_tokenId) {\r\n         safeTransferFrom(_from, _to, _tokenId, \" \");\r\n     }\r\n      \r\n     /**\r\n      * @dev Safely transfers the ownership of a given token ID to another address\r\n      * @dev If the target address is a contract, it must implement `onERC721Received`,\r\n      *  which is called upon a safe transfer, and return the magic value\r\n      *  `bytes4(keccak256(\"onERC721Received(address,uint256,bytes)\"))`; otherwise,\r\n      *  the transfer is reverted.\r\n      * @dev Requires the msg sender to be the owner, approved, or operator\r\n      * @param _from current owner of the token\r\n      * @param _to address to receive the ownership of the given token ID\r\n      * @param _tokenId uint256 ID of the token to be transferred\r\n      * @param _data bytes data to send along with a safe transfer check\r\n      */\r\n     function safeTransferFrom(address _from, address _to, uint256 _tokenId, bytes memory _data) public payable canTransfer(_tokenId) {\r\n         transferFrom(_from, _to, _tokenId);\r\n         require(checkAndCallSafeTransfer(_from, _to, _tokenId, _data));\r\n     }\r\n      \r\n     /**\r\n      * @dev Internal function to mint a new token\r\n      * @dev Reverts if the given token ID already exists\r\n      * @param _to The address that will own the minted token\r\n      * @param _tokenId uint256 ID of the token to be minted by the msg.sender\r\n      */\r\n     function _mint(address _to, uint256 _tokenId) internal {\r\n         require(_to!=address(0));\r\n         addTokenTo(_to, _tokenId);\r\n         emit Transfer(address(0), _to, _tokenId);\r\n     }\r\n      \r\n     /**\r\n      * @dev Internal function to burn a specific token\r\n      * @dev Reverts if the token does not exist\r\n      * @param _tokenId uint256 ID of the token being burned by the msg.sender\r\n      */\r\n     function _burn(address _owner, uint256 _tokenId) internal {\r\n         clearApproval(_owner, _tokenId);\r\n         removeTokenFrom(_owner, _tokenId);\r\n         emit Transfer(_owner, address(0), _tokenId);\r\n     }\r\n }\r\n",
  "sourcePath": "F:\\Auction DApp\\backend\\contracts\\ERC721Token\\ERC721BasicToken.sol",
  "compiler": {
    "name": "solc",
    "version": "0.5.12+commit.7709ece9.Emscripten.clang"
  },
  "schemaVersion": "3.0.20",
  "updatedAt": "2020-01-15T09:15:10.815Z",
  "networkType": "ethereum",
  "devdoc": {
    "details": "see https://github.com/ethereum/EIPs/blob/master/EIPS/eip-721.md",
    "methods": {
      "approve(address,uint256)": {
        "details": "Approves another address to transfer the given token IDThe zero address indicates there is no approved address.There can only be one approved address per token at a given time.Can only be called by the token owner or an approved operator.",
        "params": {
          "_to": "address to be approved for the given token ID",
          "_tokenId": "uint256 ID of the token to be approved"
        }
      },
      "balanceOf(address)": {
        "details": "Gets the balance of the specified address",
        "params": {
          "_owner": "address to query the balance of"
        },
        "return": "uint256 representing the amount owned by the passed address"
      },
      "exists(uint256)": {
        "details": "Returns whether the specified token exists",
        "params": {
          "_tokenId": "uint256 ID of the token to query the existance of"
        },
        "return": "whether the token exists"
      },
      "getApproved(uint256)": {
        "details": "Gets the approved address for a token ID, or zero if no address set",
        "params": {
          "_tokenId": "uint256 ID of the token to query the approval of"
        },
        "return": "address currently approved for a the given token ID"
      },
      "isApprovedForAll(address,address)": {
        "details": "Tells whether an operator is approved by a given owner",
        "params": {
          "_operator": "operator address which you want to query the approval of",
          "_owner": "owner address which you want to query the approval of"
        },
        "return": "bool whether the given operator is approved by the given owner"
      },
      "onERC721Received(address,uint256,bytes)": {
        "details": "Magic value to be returned upon successful reception of an NFT Equals to `bytes4(keccak256(\"onERC721Received(address,uint256,bytes)\"))`, which can be also obtained as `ERC721Receiver(0).onERC721Received.selector`"
      },
      "ownerOf(uint256)": {
        "details": "Gets the owner of the specified token ID",
        "params": {
          "_tokenId": "uint256 ID of the token to query the owner of"
        },
        "return": "owner address currently marked as the owner of the given token ID"
      },
      "safeTransferFrom(address,address,uint256)": {
        "details": "Safely transfers the ownership of a given token ID to another addressIf the target address is a contract, it must implement `onERC721Received`, which is called upon a safe transfer, and return the magic value `bytes4(keccak256(\"onERC721Received(address,uint256,bytes)\"))`; otherwise, the transfer is reverted.Requires the msg sender to be the owner, approved, or operator",
        "params": {
          "_from": "current owner of the token",
          "_to": "address to receive the ownership of the given token ID",
          "_tokenId": "uint256 ID of the token to be transferred"
        }
      },
      "safeTransferFrom(address,address,uint256,bytes)": {
        "details": "Safely transfers the ownership of a given token ID to another addressIf the target address is a contract, it must implement `onERC721Received`, which is called upon a safe transfer, and return the magic value `bytes4(keccak256(\"onERC721Received(address,uint256,bytes)\"))`; otherwise, the transfer is reverted.Requires the msg sender to be the owner, approved, or operator",
        "params": {
          "_data": "bytes data to send along with a safe transfer check",
          "_from": "current owner of the token",
          "_to": "address to receive the ownership of the given token ID",
          "_tokenId": "uint256 ID of the token to be transferred"
        }
      },
      "setApprovalForAll(address,bool)": {
        "details": "Sets or unsets the approval of a given operatorAn operator is allowed to transfer all tokens of the sender on their behalf",
        "params": {
          "_approved": "representing the status of the approval to be set",
          "_to": "operator address to set the approval"
        }
      },
      "transferFrom(address,address,uint256)": {
        "details": "Transfers the ownership of a given token ID to another addressUsage of this method is discouraged, use `safeTransferFrom` whenever possibleRequires the msg sender to be the owner, approved, or operator",
        "params": {
          "_from": "current owner of the token",
          "_to": "address to receive the ownership of the given token ID",
          "_tokenId": "uint256 ID of the token to be transferred"
        }
      }
    },
    "title": "ERC721 Non-Fungible Token Standard basic implementation"
  },
  "userdoc": {
    "methods": {}
  }
}